:020000040000FA
:06000000E6EF17F012000C
:020006001200E6
:0600080080EF19F0120068
:0600180000EF18F01200D9
:1000500000000900023A36200100010800012C339B
:0D0060002002000100000000000000000070
:10010000D9CFE6FFE1CFD9FF03016851F36EFE0EB0
:10011000DBCFF4FFF350F45C02E3030ED4D0FE0E09
:10012000DB500C0DF3CFE9FFF4CFEAFF500EE926C8
:10013000030EEA22EF0402E1070EC5D0FC0EDBCF6E
:1001400014F0FD0EDBCF15F0FE0EDB500C0DF3CFDF
:10015000E9FFF4CFEAFF500EE926030EEA22050E6E
:10016000E926000EEA22EE50EFCFEAFFE96EEECF6D
:1001700016F0EFCF17F01450165C1550175802E226
:10018000080EA1D0FA0EDBCF14F0FB0EDBCF15F07A
:10019000FE0EDB500C0DF3CFE9FFF4CFEAFF500E5B
:1001A000E926030EEA22050EE926000EEA22EE50A9
:1001B000EFCFEAFFE96E040EE926000EEA22EECF49
:1001C00016F0EFCF17F01650145C1750155822E3B5
:1001D000FA0EDBCF18F0FB0EDBCF19F0FE0EDB5072
:1001E0000C0DF3CFE9FFF4CFEAFF500EE926030E22
:1001F000EA22050EE926000EEA22EE50EFCFEAFFD2
:10020000E96EEECF1AF0EFCF1BF018501A5C1950C0
:100210001B5802E2080E57D0FC0EDBCF16F0FD0E85
:10022000DBCF17F0FE0EDB500C0DF3CFE9FFF4CF60
:10023000EAFF500EE926030EEA22050EE926000E1B
:10024000EA22EE50EFCFEAFFE96E060EE926000E35
:10025000EA221650EE24146E1750EE20156EFE0E94
:10026000DB500C0DF3CFE9FFF4CFEAFF500EE92687
:10027000030EEA22EE5214C0EEFF15C0EDFFFE0E93
:10028000DB500C0DF3CFE9FFF4CFEAFF500EE92667
:10029000030EEA22030EE926000EEA22FA0EDBCF55
:1002A000EEFFFB0EDBCFEDFFFE0EDB500C0DF3CFB0
:1002B000E9FFF4CFEAFF500EE926030EEA22010E11
:1002C000EF6E000E00D0E552E7CFD9FF1200D9CF74
:1002D000E6FFE1CFD9FF03016851F36EFE0EDBCFDD
:1002E000F4FFF350F45C02E3030EB3D0FE0EDB50D8
:1002F0000C0DF3CFE9FFF4CFEAFF500EE926030E11
:10030000EA22EF0402E1070EA4D0FC0EDBCF14F0CA
:10031000FD0EDBCF15F0FE0EDB500C0DF3CFE9FF29
:10032000F4CFEAFF500EE926030EEA22050EE92675
:10033000000EEA22EE50EFCFEAFFE96EEECF16F0A4
:10034000EFCF17F01450165C1550175802E2080E44
:1003500080D0FA0EDBCF14F0FB0EDBCF15F0FE0ED3
:10036000DB500C0DF3CFE9FFF4CFEAFF500EE92686
:10037000030EEA22050EE926000EEA22EE50EFCF28
:10038000EAFFE96E040EE926000EEA22EECF16F02F
:10039000EFCF17F01650145C1750155822E3FA0EE1
:1003A000DBCF18F0FB0EDBCF19F0FE0EDB500C0D8F
:1003B000F3CFE9FFF4CFEAFF500EE926030EEA225D
:1003C000050EE926000EEA22EE50EFCFEAFFE96EB5
:1003D000EECF1AF0EFCF1BF018501A5C19501B58D3
:1003E00002E2080E36D0FE0EDB500C0DF3CFE9FF13
:1003F000F4CFEAFF500EE926030EEA22EE52FC0E7D
:10040000DBCFEEFFFD0EDBCFEDFFFE0EDB500C0D64
:10041000F3CFE9FFF4CFEAFF500EE926030EEA22FC
:10042000030EE926000EEA22FA0EDBCFEEFFFB0EEA
:10043000DBCFEDFFFE0EDB500C0DF3CFE9FFF4CF69
:10044000EAFF500EE926030EEA22010EEF6E000EBF
:1004500000D0E552E7CFD9FF1200D9CFE6FFE1CFB8
:10046000D9FF03016851F36EFE0EDBCFF4FFF350AA
:10047000F45C02E3030E48D0FE0EDB500C0DF3CF0C
:10048000E9FFF4CFEAFF500EE926030EEA22EF500F
:1004900002E1050E39D0FE0EDB500C0DF3CFE9FF63
:1004A000F4CFEAFF500EE926030EEA22EE52EECF19
:1004B00016F0EFCF17F0FE0EDB500C0DF3CFE9FF77
:1004C000F4CFEAFF500EE926030EEA22050EE926D4
:1004D000000EEA22EE50EFCFEAFFE96E060EE926A3
:1004E000000EEA22EE50165C146EEE501758156E90
:1004F000FC0EDBCFE9FFFD0EDBCFEAFF14C0EEFF01
:1005000015C0EDFF000E00D0E552E7CFD9FF120075
:10051000D9CFE6FFE1CFD9FF03016851F36EFE0E9C
:10052000DBCFF4FFF350F45C02E3030E1DD0FE0EAC
:10053000DB500C0DF3CFE9FFF4CFEAFF500EE926B4
:10054000030EEA22EF5002E1050E0ED0FE0EDB5044
:100550000C0DF3CFE9FFF4CFEAFF500EE926030EAE
:10056000EA22EF6A000E00D0E552E7CFD9FF120071
:10057000D9CFE6FFE1CFD9FF03016851F36EFE0E3C
:10058000DBCFF4FFF350F45C02E3030E1FD0FE0E4A
:10059000DB500C0DF3CFE9FFF4CFEAFF500EE92654
:1005A000030EEA22050EE926000EEA22EE50EFCFF6
:1005B000EAFFE96EE9CF14F0EACF15F0FC0E14C0A3
:1005C000DBFFFD0E15C0DBFF000E00D0E552E7CFCC
:1005D000D9FF1200D9CFE6FFE1CFD9FF030168515F
:1005E000F36EFE0EDBCFF4FFF350F45C02E3030E78
:1005F00055D1FE0EDB500C0DF3CFE9FFF4CFEAFF2F
:10060000500EE926030EEA22EF5002E1010E46D118
:10061000FE0EDB500C0DF3CFE9FFF4CFEAFF500ED6
:10062000E926030EEA22050EE926000EEA22EE5024
:10063000EFCFEAFFE96E060EE926000EEA22EE2A67
:10064000EF22FE0EDB500C0DF3CFE9FFF4CFEAFFF3
:10065000500EE926030EEA22050EE926000EEA22D4
:10066000EE50EFCFEAFFE96E060EE926000EEA2211
:10067000EECF14F0EFCF15F0FE0EDB500C0DF3CFE4
:10068000E9FFF4CFEAFF500EE926030EEA22EE520C
:10069000EECF16F0EFCF17F01650141802E11750F6
:1006A000151801E0F9D0FE0EDB500C0DF3CFE9FF79
:1006B000F4CFEAFF500EE926030EEA22030EE926E4
:1006C000000EEA22EE50ED100DE1FE0EDB500C0D97
:1006D000F3CFE9FFF4CFEAFF500EE926030EEA223A
:1006E000EF6A40D0FE0EDB500C0DF3CFE9FFF4CFE4
:1006F000EAFF500EE926030EEA22050EE926000E57
:10070000EA22EE50EFCFEAFFE96E060EE926000E70
:10071000EA22EECF16F0EFCF17F0FE0EDB500C0DF5
:10072000F3CFE9FFF4CFEAFF500EE926030EEA22E9
:10073000030EE926000EEA221650EE24146E17501E
:10074000EE20156EFE0EDB500C0DF3CFE9FFF4CF5B
:10075000EAFF500EE926030EEA22EE5214C0EEFF25
:1007600015C0EDFFFE0EDB500C0DF3CFE9FFF4CF0B
:10077000EAFF500EE926030EEA22080EE926000ED3
:10078000EA22EE50ED1026E0FE0EDB500C0DF3CF0A
:10079000E9FFF4CFEAFF500EE926030EEA22080E25
:1007A000E926000EEA22EF50E66EFE0EDB500C0D3D
:1007B000F3CFE9FFF4CFEAFF500EE926030EEA2259
:1007C000070EE926000EEA22EF50E66E5FEC0AF013
:1007D000E552E552FE0EDB500C0DF3CFE9FFF4CFEE
:1007E000EAFF500EE926030EEA22070EE926000E64
:1007F000EA22EF5026E0FE0EDB500C0DF3CFE9FFAE
:10080000F4CFEAFF500EE926030EEA22080EE9268D
:10081000000EEA22EE50ED1014E1FE0EDB500C0D3E
:10082000F3CFE9FFF4CFEAFF500EE926030EEA22E8
:10083000070EE926000EEA22EF50E66E24EC07F0E0
:10084000E552FE0EDB500C0DF3CFE9FFF4CFEAFFCB
:10085000500EE926030EEA220A0EE926000EEA22CD
:10086000EE50ED1019E0FE0EDB500C0DF3CFE9FF5A
:10087000F4CFEAFF500EE926030EEA220A0EE9261B
:10088000000EEA22EECF14F0EFCF15F004D015C021
:10089000FAFF1450F96EFBDF030E00D0E552E7CFEC
:1008A000D9FF1200D9CFE6FFE1CFD9FF030168518C
:1008B000F36EFE0EDBCFF4FFF350F45C02E3030EA5
:1008C00036D0FE0EDB500C0DF3CFE9FFF4CFEAFF7C
:1008D000500EE926030EEA22EF5002E1010E27D066
:1008E000FE0EDB500C0DF3CFE9FFF4CFEAFF500E04
:1008F000E926030EEA22050EE926000EEA22EE5052
:10090000EFCFEAFFE96E060EE926000EEA22EECFEF
:1009100014F0EFCF15F0FC0EDBCFE9FFFD0EDBCFBF
:10092000EAFF14C0EEFF15C0EDFF000E00D0E55247
:10093000E7CFD9FF1200D9CFE6FFE1CFD9FF030EF1
:10094000E126010ED6CFDBFF020ED7CFDBFFD95059
:10095000010FE96EDACFEAFF03018D51EE268E51C9
:10096000ED22020EDB50D76E010EDB50D66EF294F4
:1009700003014C2B000E4D2303016A2B6B236C23C8
:100980006D23DF6A03016851DF5C01E32BD1DF5087
:100990000C0DF3CFE9FFF4CFEAFF500EE926030E6A
:1009A000EA22EF5001E11CD1DF500C0DF3CFE9FF3B
:1009B000F4CFEAFF500EE926030EEA22050EE926DF
:1009C000000EEA22EE50EFCFEAFFE96E060EE926AE
:1009D000000EEA22EECF14F0EFCF15F0DF500C0D31
:1009E000F3CFE9FFF4CFEAFF500EE926030EEA2227
:1009F000EE52EECF16F0EFCF17F01650141802E1BA
:100A00001750151801E0ECD0DF500C0DF3CFE9FFC3
:100A1000F4CFEAFF500EE926030EEA22030EE92680
:100A2000000EEA22EE50ED100CE1DF500C0DF3CF7A
:100A3000E9FFF4CFEAFF500EE926030EEA22EF6A3F
:100A40003DD0DF500C0DF3CFE9FFF4CFEAFF500E9D
:100A5000E926030EEA22050EE926000EEA22EE50F0
:100A6000EFCFEAFFE96E060EE926000EEA22EECF8E
:100A700016F0EFCF17F0DF500C0DF3CFE9FFF4CFF6
:100A8000EAFF500EE926030EEA22030EE926000EC5
:100A9000EA221650EE24146E1750EE20156EDF5029
:100AA0000C0DF3CFE9FFF4CFEAFF500EE926030E59
:100AB000EA22EE5214C0EEFF15C0EDFFDF500C0D20
:100AC000F3CFE9FFF4CFEAFF500EE926030EEA2246
:100AD000080EE926000EEA22EE50ED1024E0DF5069
:100AE0000C0DF3CFE9FFF4CFEAFF500EE926030E19
:100AF000EA22080EE926000EEA22EF50E66EDF50E9
:100B00000C0DF3CFE9FFF4CFEAFF500EE926030EF8
:100B1000EA22070EE926000EEA22EF50E66E5FECAD
:100B20000AF0E552E552DF500C0DF3CFE9FFF4CFA8
:100B3000EAFF500EE926030EEA22070EE926000E10
:100B4000EA22EF5024E0DF500C0DF3CFE9FFF4CFA1
:100B5000EAFF500EE926030EEA22080EE926000EEF
:100B6000EA22EE50ED1013E1DF500C0DF3CFE9FF58
:100B7000F4CFEAFF500EE926030EEA22070EE9261B
:100B8000000EEA22EF50E66E24EC07F0E552DF504B
:100B90000C0DF3CFE9FFF4CFEAFF500EE926030E68
:100BA000EA220A0EE926000EEA22EE50ED1018E0C5
:100BB000DF500C0DF3CFE9FFF4CFEAFF500EE9262A
:100BC000030EEA220A0EE926000EEA22EECF14F006
:100BD000EFCF15F004D015C0FAFF1450F96EFBDF0B
:100BE000DF2AD0D600016485030EE15C03E200D069
:100BF000E16AE552E16EE552E7CFD9FF1200D9CFA5
:100C0000E6FFE1CFD9FF030EE126D950010FE96ECF
:100C1000DACFEAFFA00EEE6E000EED6EDF6A100E68
:100C2000DF5C3DE2010EDBCFE9FF020EDBCFEAFF26
:100C3000EF500F0B146EFD0EDB50145C29E1DF50FA
:100C4000156AB00F146E000E1522010E14C0DBFFE2
:100C5000020E15C0DBFF010EDBCFE9FF020EDBCF7A
:100C6000EAFFEF50F00BE66E010EDBCFE9FF020E5C
:100C7000DBCFEAFFE552E750EF6E010EDBCFE9FF75
:100C8000020EDBCFEAFFFE0EDB50EF26000E09D08E
:100C9000010EDB2A020E01E3DB2ADF2AC0D7030E96
:100CA00000D0146E030EE15C02E2E16AE552E16EEF
:100CB0001450E552E7CFD9FF1200D9CFE6FFE1CFBC
:100CC000D9FF030EE126D950010FE96EDACFEAFF12
:100CD000A00EEE6E000EED6EDF6A100EDF5C34E2E9
:100CE000010EDBCFE9FF020EDBCFEAFFEF500F0B67
:100CF000146EFC0EDB50145C20E1DF50156AB00F5F
:100D0000146E000E1522010E14C0DBFF020E15C07A
:100D1000DBFF010EDBCFE9FF020EDBCFEAFFEF5076
:100D20000F0BE66EFD0EDBCFE9FFFE0EDBCFEAFF19
:100D3000E552E750EF6E000E09D0010EDB2A020EDD
:100D400001E3DB2ADF2AC9D7030E00D0146E030E9D
:100D5000E15C02E2E16AE552E16E1450E552E7CF50
:100D6000D9FF1200D9CFE6FFE1CFD9FF00016035EE
:100D700014E2100E0001E76E6019E8AE02D0E7340D
:100D800002D0E750605D09E2FD0EDBCFE9FFFE0E09
:100D9000DBCFEAFF60C0EFFF08D0FD0EDBCFE9FF3D
:100DA000FE0EDBCFEAFF100EEF6E000E00D0E55214
:100DB000E7CFD9FF1200D9CFE6FFE1CFD9FF030E6D
:100DC000E126D950010FE96EDACFEAFFA00EEE6EF0
:100DD000000EED6EDF6A100EDF5C28E2010EDBCF45
:100DE000E9FF020EDBCFEAFFEF500F0B146EFE0E91
:100DF000DB50145C14E1010EDBCFE9FF020EDBCF08
:100E0000EAFFEF50E00BE66EFC0EDBCFE9FFFD0ED4
:100E1000DBCFEAFFE552E750EF6E000E09D0010E7E
:100E2000DB2A020E01E3DB2ADF2AD5D7030E00D02E
:100E3000146E030EE15C02E2E16AE552E16E1450C9
:100E4000E552E7CFD9FF1200D9CFE6FFE1CFD9FFB6
:100E5000030EE126D950010FE96EDACFEAFFA00EAA
:100E6000EE6E000EED6EDF6A100EDF5C57E2010ED3
:100E7000DBCFE9FF020EDBCFEAFFEF500F0B146E62
:100E8000FE0EDB50145C43E1010EDBCFE9FF020EE6
:100E9000DBCFEAFFEF50E00B16E10F0E146E010EF0
:100EA000DBCFE9FF020EDBCFEAFF1450EF16200E76
:100EB000146E010EDBCFE9FF020EDBCFEAFF145008
:100EC000EF2616D922D0DF50156AB00F146E000E2F
:100ED0001522010E14C0DBFF020E15C0DBFF010E50
:100EE000DBCFE9FF020EDBCFEAFFEF50F00B146E11
:100EF000F00E145C0AE2100E146E010EDBCFE9FF57
:100F0000020EDBCFEAFF1450EF26000E09D0010ECF
:100F1000DB2A020E01E3DB2ADF2AA6D7030E00D06C
:100F2000146E030EE15C02E2E16AE552E16E1450D8
:100F3000E552E7CFD9FF1200D9CFE6FFE1CFD9FFC5
:100F4000030EE126D950010FE96EDACFEAFFA00EB9
:100F5000EE6E000EED6EDF6A100EDF5C54E2010EE5
:100F6000DBCFE9FF020EDBCFEAFFEF500F0B0001F2
:100F7000605D42E1DF50156AB00F146E000E15225D
:100F8000010E14C0DBFF020E15C0DBFF010EDBCF2C
:100F9000E9FF020EDBCFEAFFEF50E00B20E1DF506C
:100FA000156AA00F146E000E1522010E14C0DBFF8F
:100FB000020E15C0DBFF0F0E146E010EDBCFE9FF32
:100FC000020EDBCFEAFF1450EF16010EDBCFE9FF74
:100FD000020EDBCFEAFFF29C1BEF0EF00DD0100EDD
:100FE000146E010EDBCFE9FF020EDBCFEAFF1450D7
:100FF000EF5EF29C1BEF0EF0010EDB2A020E01E306
:10100000DB2ADF2AA9D7000E00D0146E030EE15CA4
:1010100002E2E16AE552E16E1450E552E7CFD9FFF2
:101020001200D9CFE6FFE1CFD9FF030EE126D95058
:10103000010FE96EDACFEAFFA00EEE6E000EED6E44
:10104000DF6A100EDF5C43E2010EDBCFE9FF020E28
:10105000DBCFEAFFEF500F0B0001605D10E10F0ED8
:10106000146E010EDBCFE9FF020EDBCFEAFF145056
:10107000EF16010EDBCFE9FF020EDBCFEAFF010E18
:10108000DBCFE9FF020EDBCFEAFFEF500F0B146E50
:10109000FE0EDB50145C14E10F0E146E010EDBCF5C
:1010A000E9FF020EDBCFEAFF1450EF16200E146E9C
:1010B000010EDBCFE9FF020EDBCFEAFF1450EF2673
:1010C000010EDB2A020E01E3DB2ADF2ABAD7F29CEB
:1010D0001BEF0EF0000E00D0146E030EE15C02E276
:1010E000E16AE552E16E1450E552E7CFD9FF1200F4
:1010F000F29C00016485000164A302D0000E46D07A
:1011000000016495000164A13DD0F29CD8CFE4FFBA
:10111000E8CFE4FFE0CFE4FFD9CFE4FFDACFE4FF8C
:10112000E9CFE4FFEACFE4FFF8CFE4FFF7CFE4FF35
:10113000F6CFE4FFF5CFE4FFF4CFE4FFF3CFE4FF15
:10114000210EE96AEA6AE850E806000903E0EECFFA
:10115000E4FFF9D7FCCFE9FFFC50000808E2FDCF1F
:10116000E4FFFECFE4FFFFCFE4FF0600F5D7E9CFB1
:10117000E4FFE4528BC3E9FF8CC3EAFFE1CFEEFF4B
:10118000E2CFEEFFEEEF0CF0000E00D012000301F4
:101190008A5100D01200D9CFE6FFE1CFD9FFF29CEF
:1011A000D8CFE4FFE8CFE4FFE0CFE4FFD9CFE4FFFE
:1011B000DACFE4FFE9CFE4FFEACFE4FFF8CFE4FFC2
:1011C000F7CFE4FFF6CFE4FFF5CFE4FFF4CFE4FF81
:1011D000F3CFE4FF210EE96AEA6AE850E806000965
:1011E00003E0EECFE4FFF9D7FCCFE9FFFC500008A5
:1011F00008E2FDCFE4FFFECFE4FFFFCFE4FF0600EF
:10120000F5D7E9CFE4FFE452E1CFE9FFE2CFEAFF0F
:10121000E1CFEEFFE2CFEEFFE1CF89F3E2CF88F33B
:10122000FE0EDBCF8AF3FC6A5EEF0CF0E552E7CFEF
:10123000D9FF1200D9CFE6FFE1CFD9FF89C3E1FF83
:1012400088C3E2FF58EC0DF0E552E7CFD9FF12005A
:10125000F29CD8CFE4FFE8CFE4FFE0CFE4FFD9CFA2
:10126000E4FFDACFE4FFE9CFE4FFEACFE4FFF8CF11
:10127000E4FFF7CFE4FFF6CFE4FFF5CFE4FFF4CFD0
:10128000E4FFF3CFE4FF210EE96AEA6AE850E806DA
:10129000000903E0EECFE4FFF9D7FCCFE9FFFC50F3
:1012A000000808E2FDCFE4FFFECFE4FFFFCFE4FF3C
:1012B0000600F5D7E9CFE4FFE4528BC3E9FF8CC306
:1012C000EAFFE1CFEEFFE2CFEEFFB9EF0CF0120044
:1012D000D9CFE6FFE1CFD9FFFD0EDBCF14F0FE0E34
:1012E000DBCF15F003017151166E176A1650145CAE
:1012F0001750155802E3030E73D0FD0EDBCFE9FF44
:10130000FE0EDBCFEAFF030EEA02F3CFEAFFE902AB
:10131000F3CFE9FFF450EA266E0EE926030EEA2227
:10132000020EE926000EEA22EF0402E1010E58D077
:1013300060C0E6FFFD0EDBCFE9FFFE0EDBCFEAFF6C
:10134000030EEA02F3CFEAFFE902F3CFE9FFF4501C
:10135000EA266E0EE926030EEA22EE52E9CF14F0D9
:10136000EACF15F014C0E6FF15C0E6FFA6DCE55293
:10137000E552E55260C0E6FFFD0EDBCFE9FFFE0E51
:10138000DBCFEAFF030EEA02F3CFEAFFE902F3CF75
:10139000E9FFF450EA266E0EE926030EEA22EF502A
:1013A000E66E2DDCE552E552FD0EDBCFE9FFFE0EC9
:1013B000DBCFEAFF030EEA02F3CFEAFFE902F3CF45
:1013C000E9FFF450EA266E0EE926030EEA22020E29
:1013D000E926000EEA22010EEF6E3ADF000E00D081
:1013E000E552E7CFD9FF1200D9CFE6FFE1CFD9FF11
:1013F000FD0EDBCF14F0FE0EDBCF15F003017151B3
:10140000166E176A1650145C1750155802E3030E37
:1014100052D0FD0EDBCFE9FFFE0EDBCFEAFF030E5D
:10142000EA02F3CFEAFFE902F3CFE9FFF450EA263C
:101430006E0EE926030EEA22020EE926000EEA22CB
:10144000EF5002E1010E37D060C0E6FFFD0EDBCFAA
:10145000E9FFFE0EDBCFEAFF030EEA02F3CFEAFF5D
:10146000E902F3CFE9FFF450EA266E0EE926030EF7
:10147000EA22EE52EF50E66EFFEC05F0E552E5523F
:10148000FD0EDBCFE9FFFE0EDBCFEAFF030EEA0223
:10149000F3CFEAFFE902F3CFE9FFF450EA266E0E3C
:1014A000E926030EEA22020EE926000EEA22EF6A7E
:1014B000CFDE000E00D0E552E7CFD9FF1200D9CF22
:1014C000E6FFE1CFD9FF030EE126D950010FE96E07
:1014D000DACFEAFFA00EEE6E000EED6EDF6A100EA0
:1014E000DF5C71E2010EDBCFE9FF020EDBCFEAFF2A
:1014F000EF500F0B146EFE0EDB50145C5DE1010E1D
:10150000DBCFE9FF020EDBCFEAFFEF50200B02E159
:10151000070E60D0DF50156A800F146E000E152282
:10152000010E14C0DBFF020E15C0DBFF010EDBCF86
:10153000E9FF020EDBCFEAFFFD0EDB50EF12DF50BA
:10154000156A900F146E000E1522010E14C0DBFFF9
:10155000020E15C0DBFFFD0EDBCFE6FF010EDBCF79
:10156000E9FF020EDBCFEAFFEF50E552E71403E19B
:10157000000E30D021D0DF50156AA00F146E000E7F
:101580001522010E14C0DBFF020E15C0DBFF0F0E8B
:10159000146E010EDBCFE9FF020EDBCFEAFF145021
:1015A000EF16010EDBCFE9FF020EDBCFEAFFEF8A79
:1015B00078EC08F0000E0ED0DF2A010EDB2A020EB6
:1015C00001E3DB2A8CD7100EDF5C02E1030E02D0B0
:1015D000000E00D0146E030EE15C02E2E16AE552F7
:1015E000E16E1450E552E7CFD9FF1200D9CFE6FFE4
:1015F000E1CFD9FF030EE126D950010FE96EDACF12
:10160000EAFFA00EEE6E000EED6EDF6A100EDF5CDC
:1016100042E2010EDBCFE9FF020EDBCFEAFFEF5023
:101620000F0B0001605D30E1DF50156A800F146E12
:10163000000E1522010E14C0DBFF020E15C0DBFFE9
:10164000FE0EDB1C146E010EDBCFE9FF020EDBCFBA
:10165000EAFF1450EF16DF50156A900F146E000E5B
:101660001522010E14C0DBFF020E15C0DBFFFE0EBB
:10167000DB1C146E010EDBCFE9FF020EDBCFEAFFAD
:101680001450EF16000E09D0DF2A010EDB2A020EDD
:1016900001E3DB2ABBD7000E00D0146E030EE15C21
:1016A00002E2E16AE552E16E1450E552E7CFD9FF5C
:1016B0001200D9CFE6FFE1CFD9FF030EE126D950C2
:1016C000010FE96EDACFEAFFA00EEE6E000EED6EAE
:1016D000DF6A100EDF5C3EE2010EDBCFE9FF020E97
:1016E000DBCFEAFFEF500F0B146EFE0EDB50145CE5
:1016F0002AE1010EDBCFE9FF020EDBCFEAFFEF505C
:10170000E00B02E1070E2DD0DF50156A800F146E3A
:10171000000E1522010E14C0DBFF020E15C0DBFF08
:10172000010EDBCFE9FF020EDBCFEAFFEF50E66EE2
:10173000FC0EDBCFE9FFFD0EDBCFEAFFE552E75001
:10174000EF6E000E0ED0DF2A010EDB2A020E01E33F
:10175000DB2ABFD7100EDF5C02E1030E02D0000EC1
:1017600000D0146E030EE15C02E2E16AE552E16E24
:101770001450E552E7CFD9FF1200D9CFE6FFE1CFF1
:10178000D9FF030EE126D950010FE96EDACFEAFF47
:10179000A00EEE6E000EED6EDF6A100EDF5C5CE2F6
:1017A000010EDBCFE9FF020EDBCFEAFFEF500F0B9C
:1017B0000001605D4AE1F29CDF50156A900F146EE3
:1017C000000E1522010E14C0DBFF020E15C0DBFF58
:1017D000010EDBCFE9FF020EDBCFEAFFFE0EDBCF0F
:1017E000EFFFDF50156A800F146E000E1522010EF8
:1017F00014C0DBFF020E15C0DBFFFE0EDBCFE6FFE1
:10180000010EDBCFE9FF020EDBCFEAFFEF50E5521E
:10181000E71418E1DF50156AA00F146E000E1522B0
:10182000010E14C0DBFF020E15C0DBFF800E146E2C
:10183000010EDBCFE9FF020EDBCFEAFF1450EF26EB
:1018400078EC08F0F28C000E0ED0DF2A010EDB2AB5
:10185000020E01E3DB2AA1D7100EDF5C02E1030ECA
:1018600002D0000E00D0146E030EE15C02E2E16AC9
:10187000E552E16E1450E552E7CFD9FF1200F28E27
:10188000F28C1200F29EF29C1200F28EF28C120088
:10189000F29EF29C1200F28C1200F29C120064C0C4
:1018A00090F3000164831200000164A504D090C38A
:1018B00064F078EC08F090C364F01200EA6AE96A18
:1018C000E16AE26AF86AFA6AFF0EEE6AE962FDD737
:1018D000EE6AEA6AFC6A1F0EFC2AFF6AFE6AFD6A6B
:1018E000FC62FAD7FC6AFC2A880ED56E9D6AA06A53
:1018F000D06A9F6AA26A800EF16ED08EA00EF26E40
:10190000F2840001010EFC6E616B636F606BEA6A2A
:10191000B00EE96EF86A73C3F7FF72C3F6FF0900F1
:10192000F550D8B429D0F5CFEFFF0900F550E16E9E
:101930000900F550E26EE550AD0EE56EDE0EE76E85
:10194000E650E65009000900E9980900F550EF2635
:101950000900F550EF260900F550E126E86AE22279
:101960000900E550AD0EE56EDE0EE76EE92AE98866
:10197000D6D70001636B632BEA6AB00EE96E635140
:10198000D8B42CD0636B0F0EEF14616FD8B4F4D7BA
:10199000EFCF62F00F0EEC14616301D0F4D76165F4
:1019A00001D0F1D7ED50EE6E62C0EFFFE998EDCFB8
:1019B00062F0EF5062C0EEFFEF6EE99AEDCF62F099
:1019C000EF5062C0EEFFEF6EE988EDCF62F0EF50AE
:1019D00062C0EEFFEF6EE98A632BD5D700016491F8
:1019E0006051D8B430D0EA6A9F0EE96EE92A1F0E22
:1019F000EF146063FBD7EF9C606BE9880F0EEF1468
:101A0000616F0F0EEC1461631ED000D0EDCF62F059
:101A1000EF5062C0EEFFEF6EE998EDCF62F0EF504D
:101A200062C0EEFFEF6EE99AEDCF62F0EF5062C058
:101A3000EEFFEF6EE988EDCF62F0EF5062C0EEFF8F
:101A4000EF6EE98ADED7EA6A9F0EE96EE92AEFAA0D
:101A500074D0EFBE72D00001EF8C1F0EEF14606FD8
:101A600000016481F86A73C3F7FF72C3F6FF060EC4
:101A7000F626E86AF722000160510900F56201D0FC
:101A800005D0080EF626E86AF722F6D7060EF65EAF
:101A9000E86AF75A0900F550E96E0900F550EA6E58
:101AA0000900F550666F0900F550676FA8EF0DF05B
:101AB0000001E5CF61F0E5CF61F0FC6A0500E5507B
:101AC000FF6EE550FE6EE550FD6EFC506163F6D78B
:101AD000EA6A1F0EE96EE5CFEDFFE950D8A8FBD703
:101AE000E5CFF3FFE5CFF4FFE5CFF5FFE5CFF6FF58
:101AF000E5CFF7FFE5CFF8FFE5CFEAFFE5CFE9FF58
:101B0000E5CFDAFFE5CFD9FFE5CFE0FFE5CFE8FF8E
:101B1000E5CFD8FFF28C1000E9CFE1FFE9CFD9FF84
:101B2000EACFE2FFEACFDAFFFC6AFC2A6651FD6EDB
:101B30006751FE6EFF6AF28C1000AF0EE95C86E121
:101B400088C3E2FF89C3E1FF0001F28CFC6AFCD785
:101B5000E9CF8BF3EACF8CF3EDCFE8FFAD0EEDCFFD
:101B6000E1FFE162F5EF0DF0DE0EEDCFE1FFE162A6
:101B7000F5EF0DF0F86A73C3F7FF72C3F6FF060EB8
:101B8000F626E86AF722000160510900F56201D0EB
:101B900005D0080EF626E86AF722F6D78BC3E9FFD0
:101BA0008CC3EAFF0900F550E926E86AEA22090039
:101BB000EDCFE8FFAD0EEDCFE1FFE16207EF0EF0F4
:101BC000DE0EEDCFE1FFE16207EF0EF08BC3E9FF20
:101BD0008CC3EAFFEECFE1FFEECFE2FFE150D8A4E5
:101BE00067D7E250D8B498D763D7EA6A9F0EE96EF8
:101BF000E92A1F0EEF146063FBD7EF9AEF9CEF9E6C
:101C000065C0E8FFF00B6025E8CF65F0E7D6EA6A2B
:101C10009F0EE96EE92A1F0EEF146063FBD7EF9A5F
:101C2000EF9CEF9E65C0E8FFE838F00B6025E838D0
:101C3000E8CF65F0D3D6F86A73C3F7FF72C3F6FF37
:101C4000060EF626E86AF722000160510900F562E7
:101C500001D005D0080EF626E86AF722F6D7060E60
:101C6000F65EE86AF75A0900F550E96E0900F5508A
:0C1C7000EA6EE86AEE6EEF6EEEEF0CF02C
:102000003CEC15F0FB0EDBCFF3FFDB06F3500009D1
:102010000AE08AEC15F0FA0EF5EC15F0F3E1151C68
:10202000F1E1010E01D0000E6BEF15F03CEC15F064
:102030003B0EE12402E3E168E652E16E010EDB6A49
:10204000020EDB6AF90EDBCFF6FFFA0EDBCFF7FFED
:10205000FB0EDBCFF8FF0800F550DF6EDF5002E12A
:102060008FEF14F0250EDF5C02E082EF14F0030E18
:10207000DB6A040EDB6A050EDB6A060EDB6A070EFE
:10208000DB6AA4EC14F02D0EDF5C0CE02B0EDF5CA1
:1020900009E0200EDF5C06E0230EDF5C03E0300E7B
:1020A000DF5C1AE1DF50300A14E0130A0FE0030A84
:1020B0000AE00B0A05E0060AE4E1030EDB80E1D743
:1020C000030EDB82DED7030EDB84DBD7030EDB8659
:1020D000D8D7030EDB88D5D72A0EDF5C1BE1A0EC36
:1020E00014F0EEEC14F010E0030EDB8006680768D5
:1020F000130EDBCF0DF0140EDBCF0EF083EC17F0D8
:10210000040E04C0DBFF03D0130ED7EC14F0A4ECD4
:1021100014F00BD0090EDB6A45EC15F003E0B9ECC6
:1021200015F0FAD7090ED7EC14F0030EDBB0DB98EC
:102130002E0EDF5C1BE1A4EC14F02A0EDF5C0BE139
:10214000A0EC14F0EEEC14F003E1130E29EC15F002
:10215000A4EC14F00BD0090EDB6A45EC15F003E09B
:10216000B9EC15F0FAD7090E29EC15F0680EDF5C12
:1021700007E1A4EC14F0680EDF5C1DE1030E18D03B
:10218000740EDF5C17E07A0EDF5C14E0480EDF5C53
:1021900006E0540EDF5C03E05A0EDF5C02E1020E43
:1021A00007D06C0EDF5C03E06A0EDF5C04E1010E19
:1021B0007CEC15F0C9DBDF506E0A01E17FD31E0A0B
:1021C00001E192D1200A01E18FD13F0A01E149D119
:1021D0001A0A01E146D10D0A01E143D1200A01E1C9
:1021E00040D13A0A01E13DD1200A01E13AD1260A63
:1021F00001E135D10D0A01E132D11A0A01E1D9D04C
:10220000200A4AE0300A1FE0460A0EE0250A01E0F3
:1022100083D3D950F90FE96EFF0EDA20EA6E010E72
:10222000EE5E000EEE5AEE5A8AEC15F0250EE66EC2
:1022300095DB03E1151C01E169D386EC15F001E2A1
:102240006BD3DB2A69D3080EDB6A040EDB5001086E
:1022500006E2040EDB044EEC15F0DB508BDB080EBF
:10226000DB5009E0030EDB50010B05E172DB01E0FE
:102270004DD3080EDB6A64DBEFCFDFFFFEEC15F019
:1022800003E1151C01E142D386EC15F001E3DB2AE2
:1022900060DB01E141D33AD3070EDB5002080FE1C6
:1022A000CAEC15F0030E91EC15F00E0EEECFDBFF2D
:1022B0000F0EEECFDBFF100EEECFDBFF20D0F70EC0
:1022C000DBCF17F0F80EDBCF18F0020E175E000E12
:1022D000185AF70E17C0DBFFF80E18C0DBFF17C047
:1022E000E9FF18C0EAFF81EC15F0166A0E0E14C063
:1022F000DBFF0F0E15C0DBFF100E16C0DBFF0E0E4E
:10230000DBCFE6FF0F0EDBCFE6FF100EDBCFE6FFE5
:102310005EEC17F0E552E552E552130E05C0DBFF07
:10232000140E06C0DBFF060EDB5005E0130EC5ECF5
:1023300015F001E26ADBE9EC15F002E2130E37DB7F
:10234000ACEC15F006E0040EC5EC15F002E2050E4B
:102350002EDB030EDBB005D0FCDA01E0D7D2080E8D
:10236000DB6A090EDB6A0E0EDBCFF6FF0F0EDBCF4A
:10237000F7FF100EDBCFF8FF0800F550DF6EDF50DF
:1023800014E0EFEC15F011E2FEEC15F003E1151C82
:1023900001E1BCD2BBDB01E3DB2A090EDB2AD95009
:1023A0000E0FE96E000ECBDBE7D7D3DA01E1B4D232
:1023B000ADD2C6DA110EEECFDBFF120EEDCFDBFF92
:1023C000110EDBCFE6FF120EDBCFE6FF50EC17F06D
:1023D000E552E552130EF3CFDBFF140EF4CFDBFF13
:1023E000060EDB5004E0130ED0DB01E20EDBE9EC5D
:1023F00015F002E2130EDBDAAFDB05E0040EC5DBFD
:1024000002E2050ED4DA030EDBB005D0A2DA01E059
:102410007DD2080EDB6A090EDB6A110EDBCFE9FF05
:10242000120EDBCFEAFFEFCFDFFFDF5014E0D7DB88
:1024300012E2E4DB03E1151C01E168D267DB01E392
:10244000DB2A090EDB2A110EDB2ADBCFE9FF120E95
:10245000E8E3DB2AE6D77DDA01E15ED257D2030E4C
:10246000DB8E070EDB0410E195DB040E5ADB0A0E4F
:10247000EECFDBFF0B0EEECFDBFF0C0EEECFDBFF64
:102480000D0EEECFDBFF6CD0070EDB5003082CE106
:10249000030EDBAE0DD0B2DA020E76DAEFCF14F017
:1024A000156A166A176A14AE39D01568166835D0E1
:1024B000F70EDBCF15F0F80EDBCF16F0020E155E2F
:1024C000000E165AF70E15C0DBFFF80E16C0DBFF24
:1024D00015C0E9FF16C0EAFFEFCF14F00A0E14C0D2
:1024E000DBFF0B0EDB6A38D0070EDB50020809E178
:1024F000030EDBAE04D059DB16AE10D00ED055DB88
:102500000DD0030EDBAE12D079DA020E3DDAF9DA25
:10251000166A176A15AE02D016681768E2DA0C0E52
:1025200016C0DBFF0D0E17C0DBFF1AD0F70EDBCF96
:1025300016F0F80EDBCF17F0020E165E000E175ADB
:10254000F70E16C0DBFFF80E17C0DBFF16C0E9FF61
:1025500017C0EAFFD6DAC5DA0C0EDB6A0D0EDB6AAD
:10256000060EDB5005E1010EF36E050EF3CFDBFF27
:10257000150EDB6A160EDB6AD950370F146E000E8B
:10258000DA20156E390E14C0DBFF3A0E15C0DBFFE2
:10259000380EDB6A080EDB6A0A0EAEDADF50780A04
:1025A00012E0200A10E0280A0CE0200A0AE03F0AA4
:1025B00006E00D0A02E0200A08E1020E05D0080E2E
:1025C00003D0080EDF26100E97DA030EDBBE02D012
:1025D000DB92DB94DB50800B24E08ADAD890030E88
:1025E000EB50000A08E6000EEE5C000EEE58000EFE
:1025F000EE58000EEE5815E213DA0B680C680D6801
:102600000E6818EC17F00A0E00C0DBFF0B0E01C0BD
:10261000DBFF0C0E02C0DBFF0D0E03C0DBFF2D0E37
:1026200008D0030EDBA202D02B0E03D0DBA408D00F
:10263000200EF36E170EF3CFDBFF150EDB2A02D050
:10264000170EDB6A050EDB5003E1B7D901E189D033
:10265000EC0E146E2F0E156E000E166E070EDBCFED
:1026600017F0186A196A1A6A17C00BF018C00CF034
:1026700019C00DF01AC00EF0D3D9B0EC17F01450F9
:102680000024F36E15500120F46E16500220F86EEF
:10269000F4CFF7FFF3CFF6FF0800090EF5CFDBFF0D
:1026A000580EDF5C0FE1610EF36E090E7BD90AE371
:1026B000200E146E090EDBCFE7FF1450E75E090E03
:1026C000E7CFDBFF070EDBCF14F0156A166A176A37
:1026D0000FDA14C00BF015C00CF016C00DF017C0C7
:1026E0000EF0EECF04F0EECF05F0EECF06F0EFCF18
:1026F00007F0B0EC17F007C0EDFF06C0EDFF05C016
:10270000EDFF04C0EFFF390EDBCFE9FFDB063A0E29
:10271000DBCFEAFF01E2DB06090EDBCFEFFF150E90
:10272000DB2A4BD995E1030EDBA61DD06F0EDF5CD3
:1027300006E1C1D918E3150EDB285BDA14D0780E58
:10274000DF5C09E0580EDF5C06E0620EDF5C03E050
:10275000420EDF5C08E1020EF36E160EF3CFDBFFD4
:1027600002D0150EDB6A030EDB50100B0EE0040ED8
:10277000DBCF14F0050EDB50D880145406E2060EB1
:10278000DB5003E1040EDB5034DA95D90AE2050E82
:10279000DBCFE7FF150EDB50E75E050EE7CFDBFF73
:1027A00002D0050EDB6A040EDBCF14F0160E45D9FD
:1027B000D880145414E2160EDBCFE6FF150EDBCFE3
:1027C000E6FF040EDBCFE6FF050EDB50E552E75CCB
:1027D000E552D880E754E552D880E7545FD9030E1C
:1027E000DB50010B0BE1080EDB5008E0B2D801E032
:1027F0008DD0080EDB50BED8080EDB6A170EDB50FA
:1028000007E088D9170EF1D903E1151C01E17ED04C
:10281000160EDB5016E07ED9300EE66E9FD802E130
:10282000151C74E077D9DFCFE6FFD6EC16F0E55241
:10283000E552E552F4CF15F00001F31C02E1151C3E
:1028400065E0050EDBCF14F0160EDB50D880145473
:1028500009E2050EDBCFE7FF160EDB50E75E050E43
:10286000E7CFDBFF300EE66E050ECBD94FE1390E18
:10287000DB2ADBCFE9FF3A0E01E3DB2ADBCFEAFFFD
:10288000090EEFCFDBFFDB500EE044D9090EADD9C6
:1028900002E1151C3BE0390EDB2ADBCFE9FF3A0EE3
:1028A000EDE3DB2AEBD755D831E1160EDBCFE6FF9F
:1028B000080EC3D8E552E7245DD82ED0070EDB50B2
:1028C000030A1CE0010A14E0030A07E07BD9DBCF0E
:1028D000EEFF020EDBCFEDFF1FD0F5D8196A17AE61
:1028E00002D0186819682CD8BCD819C0EEFF14D0D3
:1028F000EAD817BE186824D8B4D80ED063D9DBCF75
:10290000EFFF0AD07BD905E1151C03E1F368F468F9
:1029100010D0FCD801E3DB2A79D92BEF10F0010E9F
:10292000DBCF14F0020EDBCF15F014C0F3FF15C09F
:10293000F4FF3B0EE15C02E2E16AE552E16ECBD0CE
:1029400029D9020E91EF15F061D90800F550DF6E1C
:102950001200200EE66E080E01EF16F0D6EC16F00F
:10296000E552E552E552F3CF14F0F4CF15F0000133
:10297000F31C1200146E156AD950010F4DD9145072
:10298000EE261550ED221200185E000E195AF70EB1
:1029900018C0DBFFF80E19C0DBFF18C0E9FF19C033
:1029A000EAFF1200DBCFF4FFF350F45C1200DB50BF
:1029B000E76E040EE7CFDBFF12000A0EDBCF14F048
:1029C0000B0EDBCF15F00C0EDBCF16F00D0EDBCFB0
:1029D00017F014501510161017101200130EEECF2A
:1029E000DBFF140EEDCFDBFF130EDBCF14F0140E64
:1029F000DBCF15F00001800E15141200F70EDBCFAF
:102A000018F0F80EDBCF19F01200050EDB50E66E61
:102A1000D950130F01D9E552E750EE6EED6A12005E
:102A20000A0EDBCF04F00B0EDBCF05F00C0EDBCF74
:102A300006F00D0EDBCF07F01200DBCFE6FF150E20
:102A4000DBCFE6FF050EDB50E552E724E552E72435
:102A50001200DB50CED8010EF36E060EF3CFDBFF73
:102A60001200EE50EFCFEAFFE96E16C0EEFF17C07E
:102A7000EEFF18C0EEFF1200D9CFE6FFDACFE6FF77
:102A8000E1CFD9FFE2CFDAFF1200DFCFE6FFE66A3F
:102A9000D4EC17F0E552E552F3501200E76E080E41
:102AA000E7CFDBFF1200EECF14F0EECF15F0EFCF43
:102AB00016F0176A1200050EDBCF14F0150EDB506E
:102AC000D88014541200010EDBCF16F0020EDBCFBB
:102AD00017F0186A1200E552E5CFDAFFE7CFD9FF09
:102AE00012000A0E14C0DBFF0B0E15C0DBFF120034
:102AF000D9500A0F0CEF16F0F36E070EF3CFDBFF81
:102B00001200EECF14F0EFCF15F01200010EDB2A09
:102B1000020E1200FC0EDBCFE6FFFD0EDBCFE6FF60
:102B20001200145E000E155AF70E14C0DBFFF80EEB
:102B300015C0DBFF14C0E9FF15C0EAFF1200DA2060
:102B4000EA6EEF2AEECFF6FF000EEF22EECFF7FF90
:102B5000EF22EECFF8FF1200040EDBCFE6FF130EDC
:102B6000DB50E552E75C9ADFDB5004DF060EDB50FA
:102B70001200090EDB500A0DF350DF24D00FE76E70
:102B8000090EE7CFDBFFA4EF14F0DB50F36E050E68
:102B9000D2EF14F0F70EDBCF14F0F80EDBCF15F008
:102BA0001200DFCFE6FFAEEF14F028DF030EECDEFD
:102BB00053EF15F000EC10F0E552E552E552E55206
:102BC00000091200BDDEEE50EFCFEAFFE96E010E04
:102BD0001200130EDB50F36E040ED2EF14F0040E4D
:102BE000DB50F36E090ED2EF14F0DBCFE6FFAEEF51
:102BF00014F0E76E050EE7CFDBFF12008BDFD1EF9D
:102C000015F0DBCFE6FF86DFDAEF15F0D950F90FCC
:102C1000E96EFF0E9FEF15F0E96E000EDA20EA6E06
:022C20001200A0
:0E2C2200FC6A03018F6B06D88FC3E6FFCBEC74
:102C300008F0E552FAD7D9CFE6FFE1CFD9FF020E6F
:102C4000E126DE6ADD6ADECF14F0DDCF15F0D89024
:102C5000155004E6140E145C000E155819E2DECF70
:102C6000E9FFDDCFEAFF000EE926030EEA222D0E72
:102C7000EF6EDECFE9FFDDCFEAFF140EE926030E8B
:102C8000EA222D0EEF6EDF2A010EDDE3DB2ADBD711
:102C90000301366B376B03012A6B2B6B03012C6B23
:102CA0002D6B03013A6B3B6B0301386B396BEA6A9E
:102CB000E96A0301D80E8D6FD90E8E6F080ED56E9E
:102CC0008EC3D7FF8DC3D6FF948E949C150EAF6E26
:102CD000040EAC6E900EAB6EF26A9D889D8A9E6A61
:102CE000F28CF28E020EE15C02E2E16AE552E16EE4
:102CF000E552E7CFD9FF1200120003D002D0120034
:0E2D00001200D9CFE6FFE552E7CFD9FF12004F
:022D0E00120EA3
:102D1000F66E330EF76E000EF86E03010900F550E3
:102D2000796F0900F5507A6F03E1796701D03DD0E2
:102D30000900F550746F0900F550756F0900F550E2
:102D4000766F09000900F550E96E0900F550EA6E4A
:102D5000090009000900F550776F0900F550786FF8
:102D600009000900F6CF7BF3F7CF7CF3F8CF7DF3B2
:102D700074C3F6FF75C3F7FF76C3F8FF03017753FB
:102D800002E1785307E00900F550EE6E7707F8E2AC
:102D90007807F9D77BC3F6FF7CC3F7FF7DC3F8FF45
:0C2DA00003017907000E7A5BBFD7120018
:042DAC00D9CFE6FF96
:102DB000DACFE6FFE1CFD9FFE2CFDAFFFB0EDBCFC0
:102DC00014F0FC0EDBCF15F00001800E15141AE193
:102DD000FB0EDBCFE9FFFC0EDBCFEAFFEECFF3FF0C
:102DE000EDCFF4FFEE2A000EEF22F3CFE9FFF4CF90
:102DF000EAFFFD0EDBCFEFFFEF50156AF36E15C053
:102E0000F4FF10D0FB0EDB50FE0806E1FD0EDBCF19
:102E1000E6FF5DEC1CF005D0FD0EDBCFE6FF03EC1A
:102E200000F0E552E552E5CFDAFFE7CFD9FF120017
:102E300004500B02F3CF00F0F4CF01F00C02F3507A
:102E40000126000EF420026E04500D02F3500226FB
:102E5000000EF420036E04500E02F35003260550BA
:102E60000B02F3500126F4500222000E03220550FB
:102E70000C02F3500226F450032205500D02F350C9
:102E8000032606500B02F3500226F450032206508C
:102E90000C02F350032607500B02F35003261200D6
:102EA000FE0EE3CFE9FFFF0EE3CFEAFFF36AF46A19
:102EB000EE5203E0F34AF42AFBD71200FF0EE3CFF1
:102EC000F8FFE552FF0EE3CFF7FFE552FF0EE3CF29
:102ED000F6FFE552E66AE66AE66A0900F55209E09D
:102EE000FD0EE32A05E1FE0EE32A02E1FF0EE32ACE
:102EF000F4D7FD0EE3CF05F0FE0EE3CF06F0FF0E94
:062F0000E3CF07F0120010
:0A2F060007C013F006C012F00650D9
:102F10000D02F4CF05F0F3CF04F007500E02F4CF0A
:102F200007F0F3CF06F00D02F3500526F450062209
:102F3000E86A072212500E02F3500526F4500622CA
:102F4000E86A07220EAEA9EF17F01250065E135082
:102F5000075A13AE000C0D50065E0E50075A000CB7
:102F6000036A026A016A006A200EE76ED89004368E
:102F700005360636073600360136023603360B5064
:102F8000005C0C5001580D5002580E50035809E3D4
:102F90000B50005E0C50015A0D50025A0E50035A4D
:082FA000042AE72EE4D7120019
:082FA800F36AF46AFF0EE12454
:102FB000E96EFF0EE220EA6EED6607D02F0EEF6499
:0C2FC00004D03A0EEF6001D0F32A12009A
:042FCC0017EE00F00C
:102FD00027EE00F0F86A0A9C4DEC1CF087EC16F026
:0C2FE000FFEC17F011EC16F0FBD712000C
:042FEC00303132331B
:0D2FF0003435363738396162636465660038
:022FFE001200BF
:10300000D8CFE4FFE0CFE4FFE46EDACFE4FFE2CF15
:10301000DAFFE9CFE4FFEACFE4FFF6CFE4FFF7CF32
:10302000E4FFF5CFE4FFF3CFE4FFF4CFE4FFFACF02
:10303000E4FF00EE00F0140EE80403E3EECFE4FF3B
:10304000FBD700EE14F0080EE80403E3EECFE4FF34
:10305000FBD7E6524FEC0CF0F2A402D09BEC04F04C
:103060009EAA03D0BDEC18F09E9A9E50100B05E06E
:10307000AC50200B02E06CEC18F0ABA202D0AB9885
:10308000AB8854EC0CF0E55200EE1BF0080EE8049F
:1030900003E3E5CFEDFFFBD700EE13F0140EE804D9
:1030A00003E3E5CFEDFFFBD7E5CFFAFFE5CFF4FF74
:1030B000E5CFF3FFE5CFF5FFE5CFF7FFE5CFF6FF6F
:1030C000E5CFEAFFE5CFE9FFE5CFDAFFE550E5CF51
:0830D000E0FFE5CFD8FF10007E
:0830D800D9CFE6FFE1CFD9FFDB
:1030E000030EE126000E0301A5D8EF502D082AE1BA
:1030F0002C6B2D6B386B396B010EDB6A020EDB6AB1
:10310000010EDBCF14F0020EDBCF15F0D890155076
:1031100004E6140E145C000E155812E2010EDBCF0B
:10312000E9FF020EDBCFEAFF000EE926030EEA22DA
:103130002D0EEF6E010EDB2A020EE2E3DB2AE0D752
:10314000AC9A11D0010E386F396B000E73D8EFCFE7
:10315000DFFF000E6FD82D0EEF6E2C2B000E2D23EF
:10316000DF50AD6EAC8A030EE15C02E2E16AE5522B
:10317000E16EE552E7CFD9FF1200D9CFE6FFE1CFEC
:10318000D9FF020EE126AECF28F37B0E0301285DA6
:1031900022E12A6B2B6BDE6ADD6ADECF14F0DDCF15
:1031A00015F0D890155004E6140E145C000E155856
:1031B0000FE2DECFE9FFDDCFEAFF140EE926030EB2
:1031C000EA222D0EEF6EDF2A010EE7E3DB2AE5D7B8
:1031D000140E030127D87D0E285D18E1010E366F0D
:1031E000376B2ED8450E175D09E14E0E185D06E1CE
:1031F000440E195D03E13A6B3B6B08D0400EE66E5E
:10320000010EE66E5FEC0AF0E552E552030118D8B4
:10321000020EE15C02E2E16AE552E16EE552E7CFBF
:10322000D9FF12002A25E96E030E2B21EA6E28C36E
:10323000EFFF12002C25E96E030E2D21EA6E12001D
:0C3240002A2B000E2B23140E12EF19F0A5
:04324C00D9CFE6FFF1
:10325000DACFE6FFE1CFD9FFE2CFDAFFE652E6525E
:10326000E652E652D950F90F146EFF0EDA20156EB1
:10327000020E14C0DBFF030E15C0DBFF020EDBCF16
:10328000E6FF030EDBCFE6FFF90EDBCFE6FFFA0E1B
:10329000DBCFE6FFFB0EDBCFE6FFD950FC0FE66E7F
:1032A000FF0EDA20E66E16EC10F0146E070EE15CED
:1032B00002E2E16AE552E16E1450F3CFDEFFF4CF93
:1032C000DDFFFC0EDBCFE9FFFD0EDBCFEAFFEF6A8F
:1032D000DECF14F0DDCF15F014C0F3FF15C0F4FFFE
:1032E000040EE15C02E2E16AE552E16EE552E5CFEF
:0832F000DAFFE7CFD9FF12005D
:10330000DACFE4FFE652F2B2F292E552E5CFDAFF0D
:023310001100AA
:0E3312000200D63800003C0300003800000026
:0C332000F53300007E0300000A000000EE
:04332C009D8A9D8851
:10333000320EE66EE66A640EE66EE66A010EE66E30
:1033400080EC00F0146E050EE15E1450800EE66E07
:10335000BDEC0BF0E552800EE66EF6EC0AF0E5529D
:1033600003013A513B110CE003013851391108E1D6
:1033700003017B0E006F430E016F7D0E026FAC8A5E
:103380000301010E3619E2E13751E0E1366B376B8C
:1033900003013A513B11DAE1470E0301165DD6E114
:1033A0004F0E175DD3E11851000EF35019110301B0
:1033B0002E6F2F6B800B01E02F6903017B0E006FD6
:1033C00018C301F319C302F37D0E036F6CEC18F000
:1033D000010E03013A6F3B6B040EE66E010EE66EC2
:0A33E0005FEC0AF0E552E552B1D7A8
:0633EA002530386C782547
:0533F00030386C78008C
:0A33F50030313233343536373839C1
:06340000E6EF17F01200D8
:0A340600D9CFE6FFE1CFD9FF190E80
:10341000E126FD0EDBCF06F0FE0E12DADB6A180E97
:10342000DB6A170EDBCF14F0180EDBCF15F0D00ED1
:10343000145C070E155801E3F6D0050EDE6E150E6E
:10344000DE6EDE6ADD6ADD52DD52040EDB6A050ED9
:10345000DB6A060EDB6A070EDB6A150EDBCFE9FFBF
:10346000DB2A160EDBCFEAFF01E3DB2A140EEFCFD7
:10347000DBFFEF5001E1B5D0040EDBCF14F0050EF9
:10348000DBCF15F0060EDBCF16F0070EDBCF17F003
:10349000050E1F0B02E0E6D9FEE1186A196A1A6AE6
:1034A000F80E1B6EF0D9EE501816EE501916EE50AD
:1034B0001A16EE501B161B0ED8901B321A321932F8
:1034C0001832E806F9E118501426195015221A503E
:1034D00016221B508AD9D7D9EECF14F0EECF15F0B3
:1034E000EECF16F0EFCF17F0050E1F0B02E0BAD9A2
:1034F000FEE10C0E14C0DBFF0D0E15C0DBFF0E0E3F
:1035000016C0DBFF0F0E17C0DBFF0C0EDBCF14F075
:103510000D0EDBCF15F00E0EDBCF16F00F0EDBCF4E
:1035200017F0D9CFE9FF43D9080EDBCF14F0090E0D
:10353000DBCF15F00A0EDBCF16F00B0EDBCF17F04A
:10354000A2D9EE50145CEE501558EE501658EE50BD
:10355000175802E315D901E256D938D9100EDBCF3E
:1035600014F0110EDBCF15F0120EDBCF16F0130E98
:10357000DBCF17F0D950040FE96E7BD936D96AD961
:103580000C0FE96E14D966D983D91450EE5C15502E
:10359000EE581650EE581750EE5802E3F1D801E2FB
:1035A00032D914D970D90C0EDBCFEEFF0D0EDBCF64
:1035B000EEFF0E0EDBCFEEFF0F0EDBCFEEFFD9508E
:1035C000100FE96EDACFEAFF040EEECFDBFF050E37
:1035D000EECFDBFF060EEECFDBFF070EEECFDBFFFD
:1035E0003CD7D9CFE9FF1AD9D950040FE96E16D9C3
:1035F000EA0EE66E330EE66EFB0EDBCFE6FFFC0E48
:10360000DBCFE6FF26EC19F0146E0C0EE15E1450D1
:10361000FB0EDBCF06F0FC0E13D9DB2A180E01E2FD
:1036200000D7DB2AFED6190EE15C02E2E16AE55220
:10363000E16EE552E7CFD9FF1200D9CFE6FFE1CF27
:10364000D9FF1C0EE126020EDB6A030EDB6A9D8A9F
:103650009D88640E0301326F336B0301346F356B49
:103660000301306F316B040EE66EBDEC0BF0E552DA
:10367000040EE66EF6EC0AF0E552400EE66EBDEC86
:103680000BF0E552400EE66EF6EC0AF0E55203014F
:103690003A513B11F2E0530E0301165D2BE117C3C3
:1036A00032F30301336B32BF336918C330F30301C4
:1036B000316B30BF316919C334F30301356B34BF4B
:1036C00035690301000ED8803055000E31550EE2E9
:1036D0000301000ED8803255000E335507E2030176
:1036E000000ED8803455000E355504E303013A6BC3
:1036F0003B6BC3D70301280E325D000E33590AE23B
:103700000301500E2E5D000E2F5904E3500E91D888
:10371000460E1FD00301320E345D000E35590AE209
:1037200003011E0E2E5D000E2F5904E31E0E81D8DC
:10373000570E0FD00301140E305D000E31590EE20A
:103740000301960E2E5D000E2F5908E3960E71D8D8
:10375000500E016F7D0E026FAC8A8FD74D0E0301A4
:10376000165D8BE11851000EF3501911146E156A95
:1037700014BE1568145003012E2715502F237DD732
:103780000C0EDBCF18F00D0EDBCF19F00E0EDBCFD9
:103790001AF00F0EDBCF1BF0D9507AD81850EE5C20
:1037A0001950EE581A50EE581B50EE58120061D8BE
:1037B0001722080E14C0DBFF090E15C0DBFF0A0E2E
:1037C00016C0DBFF0B0E17C0DBFF1200D95060D80C
:1037D0000C0EEECFDBFF0D0EEECFDBFF0E0EEECFAD
:1037E000DBFF0F0EEECFDBFF12001722100E14C00E
:1037F000DBFF110E15C0DBFF120E16C0DBFF130E30
:1038000017C0DBFF1200D950100FE96EDACFEAFFC4
:10381000EE2A000EEE22EE22EE221200DACFEAFFAE
:10382000EECFE6FFEECFE6FFEECFE6FFEFCFE6FF0F
:1038300012002E5F000E2F5B03017B0E006F120043
:10384000DBCF07F0150E06C0DBFF160E07C0DBFF4F
:10385000170E1200140EDBCF14F0156A166A176AE1
:10386000D9501200D8901436153616361736E80699
:103870001200DACFEAFFEE501426EE501522EE5079
:103880001622EE501200D9CFE9FFDACFEAFF12007C
:0A389000080FE96EDACFEAFF12001C
:06389A00600EF36E00EE6B
:1038A00000F00F0E01D81200EA6002D0EE6AFCD7D9
:0A38B000F350E9601200EE6AFCD745
:0638BA00FF0EE350ACBA62
:1038C00004D0AF6AAB8EAC8A949CACA2FED7AD6E2E
:0638D000F36EF46A120021
:0A38D600C8000A00640000000000B2
:1038E000FFFF010000000000000000000000004693
:1038F0000301800000000000000000460302800079
:0E39000000000201000000000A000001520059
:020000040030CA
:0100010006F8
:0100020019E4
:010003001EDE
:010005008377
:010006008178
:00000001FF
